{
  "address": "0x1FBE0Aa0A0a35637B941A945a6208F1a8f3786d5",
  "abi": [
    {
      "inputs": [
        {
          "internalType": "address",
          "name": "vrfCoordinatorV2",
          "type": "address"
        },
        {
          "internalType": "uint64",
          "name": "subscriptionId",
          "type": "uint64"
        },
        {
          "internalType": "bytes32",
          "name": "gasLane",
          "type": "bytes32"
        },
        {
          "internalType": "uint32",
          "name": "callbackGasLimit",
          "type": "uint32"
        },
        {
          "internalType": "string[3]",
          "name": "dogTokenUris",
          "type": "string[3]"
        },
        {
          "internalType": "uint256",
          "name": "mintFee",
          "type": "uint256"
        }
      ],
      "stateMutability": "nonpayable",
      "type": "constructor"
    },
    {
      "inputs": [
        {
          "internalType": "address",
          "name": "have",
          "type": "address"
        },
        {
          "internalType": "address",
          "name": "want",
          "type": "address"
        }
      ],
      "name": "OnlyCoordinatorCanFulfill",
      "type": "error"
    },
    {
      "inputs": [],
      "name": "RandomIpfsNft__NeedMoreEthSend",
      "type": "error"
    },
    {
      "inputs": [],
      "name": "RandomIpfsNft__RndOutOfBounds",
      "type": "error"
    },
    {
      "inputs": [],
      "name": "RandomIpfsNft__TransferFailed",
      "type": "error"
    },
    {
      "anonymous": false,
      "inputs": [
        {
          "indexed": true,
          "internalType": "address",
          "name": "owner",
          "type": "address"
        },
        {
          "indexed": true,
          "internalType": "address",
          "name": "approved",
          "type": "address"
        },
        {
          "indexed": true,
          "internalType": "uint256",
          "name": "tokenId",
          "type": "uint256"
        }
      ],
      "name": "Approval",
      "type": "event"
    },
    {
      "anonymous": false,
      "inputs": [
        {
          "indexed": true,
          "internalType": "address",
          "name": "owner",
          "type": "address"
        },
        {
          "indexed": true,
          "internalType": "address",
          "name": "operator",
          "type": "address"
        },
        {
          "indexed": false,
          "internalType": "bool",
          "name": "approved",
          "type": "bool"
        }
      ],
      "name": "ApprovalForAll",
      "type": "event"
    },
    {
      "anonymous": false,
      "inputs": [
        {
          "indexed": false,
          "internalType": "enum RandomIpfsNft.Breed",
          "name": "dogBreed",
          "type": "uint8"
        },
        {
          "indexed": false,
          "internalType": "address",
          "name": "minter",
          "type": "address"
        }
      ],
      "name": "NftMinted",
      "type": "event"
    },
    {
      "anonymous": false,
      "inputs": [
        {
          "indexed": true,
          "internalType": "uint256",
          "name": "requestId",
          "type": "uint256"
        },
        {
          "indexed": false,
          "internalType": "address",
          "name": "requester",
          "type": "address"
        }
      ],
      "name": "NftRequested",
      "type": "event"
    },
    {
      "anonymous": false,
      "inputs": [
        {
          "indexed": true,
          "internalType": "address",
          "name": "previousOwner",
          "type": "address"
        },
        {
          "indexed": true,
          "internalType": "address",
          "name": "newOwner",
          "type": "address"
        }
      ],
      "name": "OwnershipTransferred",
      "type": "event"
    },
    {
      "anonymous": false,
      "inputs": [
        {
          "indexed": true,
          "internalType": "address",
          "name": "from",
          "type": "address"
        },
        {
          "indexed": true,
          "internalType": "address",
          "name": "to",
          "type": "address"
        },
        {
          "indexed": true,
          "internalType": "uint256",
          "name": "tokenId",
          "type": "uint256"
        }
      ],
      "name": "Transfer",
      "type": "event"
    },
    {
      "inputs": [],
      "name": "MAX_CHANCE_VALUE",
      "outputs": [
        {
          "internalType": "uint256",
          "name": "",
          "type": "uint256"
        }
      ],
      "stateMutability": "view",
      "type": "function"
    },
    {
      "inputs": [
        {
          "internalType": "address",
          "name": "to",
          "type": "address"
        },
        {
          "internalType": "uint256",
          "name": "tokenId",
          "type": "uint256"
        }
      ],
      "name": "approve",
      "outputs": [],
      "stateMutability": "nonpayable",
      "type": "function"
    },
    {
      "inputs": [
        {
          "internalType": "address",
          "name": "owner",
          "type": "address"
        }
      ],
      "name": "balanceOf",
      "outputs": [
        {
          "internalType": "uint256",
          "name": "",
          "type": "uint256"
        }
      ],
      "stateMutability": "view",
      "type": "function"
    },
    {
      "inputs": [
        {
          "internalType": "uint256",
          "name": "tokenId",
          "type": "uint256"
        }
      ],
      "name": "getApproved",
      "outputs": [
        {
          "internalType": "address",
          "name": "",
          "type": "address"
        }
      ],
      "stateMutability": "view",
      "type": "function"
    },
    {
      "inputs": [
        {
          "internalType": "uint256",
          "name": "moddedRnd",
          "type": "uint256"
        }
      ],
      "name": "getBreedFromModdedRnd",
      "outputs": [
        {
          "internalType": "enum RandomIpfsNft.Breed",
          "name": "",
          "type": "uint8"
        }
      ],
      "stateMutability": "pure",
      "type": "function"
    },
    {
      "inputs": [],
      "name": "getChanceArray",
      "outputs": [
        {
          "internalType": "uint256[3]",
          "name": "",
          "type": "uint256[3]"
        }
      ],
      "stateMutability": "pure",
      "type": "function"
    },
    {
      "inputs": [
        {
          "internalType": "uint256",
          "name": "index",
          "type": "uint256"
        }
      ],
      "name": "getDogTokenUris",
      "outputs": [
        {
          "internalType": "string",
          "name": "",
          "type": "string"
        }
      ],
      "stateMutability": "view",
      "type": "function"
    },
    {
      "inputs": [],
      "name": "getMintFee",
      "outputs": [
        {
          "internalType": "uint256",
          "name": "",
          "type": "uint256"
        }
      ],
      "stateMutability": "view",
      "type": "function"
    },
    {
      "inputs": [],
      "name": "getTokenCounter",
      "outputs": [
        {
          "internalType": "uint256",
          "name": "",
          "type": "uint256"
        }
      ],
      "stateMutability": "view",
      "type": "function"
    },
    {
      "inputs": [
        {
          "internalType": "address",
          "name": "owner",
          "type": "address"
        },
        {
          "internalType": "address",
          "name": "operator",
          "type": "address"
        }
      ],
      "name": "isApprovedForAll",
      "outputs": [
        {
          "internalType": "bool",
          "name": "",
          "type": "bool"
        }
      ],
      "stateMutability": "view",
      "type": "function"
    },
    {
      "inputs": [],
      "name": "name",
      "outputs": [
        {
          "internalType": "string",
          "name": "",
          "type": "string"
        }
      ],
      "stateMutability": "view",
      "type": "function"
    },
    {
      "inputs": [],
      "name": "owner",
      "outputs": [
        {
          "internalType": "address",
          "name": "",
          "type": "address"
        }
      ],
      "stateMutability": "view",
      "type": "function"
    },
    {
      "inputs": [
        {
          "internalType": "uint256",
          "name": "tokenId",
          "type": "uint256"
        }
      ],
      "name": "ownerOf",
      "outputs": [
        {
          "internalType": "address",
          "name": "",
          "type": "address"
        }
      ],
      "stateMutability": "view",
      "type": "function"
    },
    {
      "inputs": [
        {
          "internalType": "uint256",
          "name": "requestId",
          "type": "uint256"
        },
        {
          "internalType": "uint256[]",
          "name": "randomWords",
          "type": "uint256[]"
        }
      ],
      "name": "rawFulfillRandomWords",
      "outputs": [],
      "stateMutability": "nonpayable",
      "type": "function"
    },
    {
      "inputs": [],
      "name": "renounceOwnership",
      "outputs": [],
      "stateMutability": "nonpayable",
      "type": "function"
    },
    {
      "inputs": [],
      "name": "requestNft",
      "outputs": [
        {
          "internalType": "uint256",
          "name": "requestId",
          "type": "uint256"
        }
      ],
      "stateMutability": "payable",
      "type": "function"
    },
    {
      "inputs": [
        {
          "internalType": "uint256",
          "name": "",
          "type": "uint256"
        }
      ],
      "name": "s_requestIdToSender",
      "outputs": [
        {
          "internalType": "address",
          "name": "",
          "type": "address"
        }
      ],
      "stateMutability": "view",
      "type": "function"
    },
    {
      "inputs": [],
      "name": "s_tokenCounter",
      "outputs": [
        {
          "internalType": "uint256",
          "name": "",
          "type": "uint256"
        }
      ],
      "stateMutability": "view",
      "type": "function"
    },
    {
      "inputs": [
        {
          "internalType": "address",
          "name": "from",
          "type": "address"
        },
        {
          "internalType": "address",
          "name": "to",
          "type": "address"
        },
        {
          "internalType": "uint256",
          "name": "tokenId",
          "type": "uint256"
        }
      ],
      "name": "safeTransferFrom",
      "outputs": [],
      "stateMutability": "nonpayable",
      "type": "function"
    },
    {
      "inputs": [
        {
          "internalType": "address",
          "name": "from",
          "type": "address"
        },
        {
          "internalType": "address",
          "name": "to",
          "type": "address"
        },
        {
          "internalType": "uint256",
          "name": "tokenId",
          "type": "uint256"
        },
        {
          "internalType": "bytes",
          "name": "data",
          "type": "bytes"
        }
      ],
      "name": "safeTransferFrom",
      "outputs": [],
      "stateMutability": "nonpayable",
      "type": "function"
    },
    {
      "inputs": [
        {
          "internalType": "address",
          "name": "operator",
          "type": "address"
        },
        {
          "internalType": "bool",
          "name": "approved",
          "type": "bool"
        }
      ],
      "name": "setApprovalForAll",
      "outputs": [],
      "stateMutability": "nonpayable",
      "type": "function"
    },
    {
      "inputs": [
        {
          "internalType": "bytes4",
          "name": "interfaceId",
          "type": "bytes4"
        }
      ],
      "name": "supportsInterface",
      "outputs": [
        {
          "internalType": "bool",
          "name": "",
          "type": "bool"
        }
      ],
      "stateMutability": "view",
      "type": "function"
    },
    {
      "inputs": [],
      "name": "symbol",
      "outputs": [
        {
          "internalType": "string",
          "name": "",
          "type": "string"
        }
      ],
      "stateMutability": "view",
      "type": "function"
    },
    {
      "inputs": [
        {
          "internalType": "uint256",
          "name": "tokenId",
          "type": "uint256"
        }
      ],
      "name": "tokenURI",
      "outputs": [
        {
          "internalType": "string",
          "name": "",
          "type": "string"
        }
      ],
      "stateMutability": "view",
      "type": "function"
    },
    {
      "inputs": [
        {
          "internalType": "address",
          "name": "from",
          "type": "address"
        },
        {
          "internalType": "address",
          "name": "to",
          "type": "address"
        },
        {
          "internalType": "uint256",
          "name": "tokenId",
          "type": "uint256"
        }
      ],
      "name": "transferFrom",
      "outputs": [],
      "stateMutability": "nonpayable",
      "type": "function"
    },
    {
      "inputs": [
        {
          "internalType": "address",
          "name": "newOwner",
          "type": "address"
        }
      ],
      "name": "transferOwnership",
      "outputs": [],
      "stateMutability": "nonpayable",
      "type": "function"
    },
    {
      "inputs": [],
      "name": "withdraw",
      "outputs": [],
      "stateMutability": "nonpayable",
      "type": "function"
    }
  ],
  "transactionHash": "0x81a41d6a2b426ee22f0f9d13606dccf9a7cb746de5dd484f7892cf21bb6191c4",
  "args": [
    "0x6168499c0cFfCaCD319c818142124B7A15E857ab",
    "6741",
    "0xd89b2bf150e3b9e13446986e571fb9cab24b13cea0a43ea20a6049a85cc807cc",
    "500000",
    [
      "ipfs://QmesMCtksLXWM1uDBA2L55mVKVV2cenQujZ53VtxPYZggB",
      "ipfs://QmeZmZ1EJHNVdqE6JHA31g1vyFjyusqU95o7erKattPYjR",
      "ipfs://QmXeDv1ymVRPgH4CDUmU5TeffVG9UHi394YR7EqUCaY9gJ"
    ],
    "10000000000000000"
  ],
  "numDeployments": 1,
  "solcInputHash": "4870b488aed32b5ac1c0e1310c492ead",
  "bytecode": "0x6101406040523480156200001257600080fd5b506040516200435f3803806200435f8339818101604052810190620000389190620005d7565b6040518060400160405280600f81526020017f52616e646f6d2049504653204e465400000000000000000000000000000000008152506040518060400160405280600381526020017f52494e0000000000000000000000000000000000000000000000000000000000815250878073ffffffffffffffffffffffffffffffffffffffff1660808173ffffffffffffffffffffffffffffffffffffffff1660601b81525050508160009080519060200190620000f59291906200029e565b5080600190805190602001906200010e9291906200029e565b5050506200013162000125620001d060201b60201c565b620001d860201b60201c565b8573ffffffffffffffffffffffffffffffffffffffff1660a08173ffffffffffffffffffffffffffffffffffffffff1660601b815250508467ffffffffffffffff1660c08167ffffffffffffffff1660c01b815250508360e081815250508263ffffffff166101008163ffffffff1660e01b8152505081600a906003620001ba9291906200032f565b5080610120818152505050505050505062000932565b600033905090565b6000600760009054906101000a900473ffffffffffffffffffffffffffffffffffffffff16905081600760006101000a81548173ffffffffffffffffffffffffffffffffffffffff021916908373ffffffffffffffffffffffffffffffffffffffff1602179055508173ffffffffffffffffffffffffffffffffffffffff168173ffffffffffffffffffffffffffffffffffffffff167f8be0079c531659141344cd1fd0a4f28419497f9722a3daafe3b4186f6b6457e060405160405180910390a35050565b828054620002ac90620007bc565b90600052602060002090601f016020900481019282620002d057600085556200031c565b82601f10620002eb57805160ff19168380011785556200031c565b828001600101855582156200031c579182015b828111156200031b578251825591602001919060010190620002fe565b5b5090506200032b919062000396565b5090565b82805482825590600052602060002090810192821562000383579160200282015b8281111562000382578251829080519060200190620003719291906200029e565b509160200191906001019062000350565b5b509050620003929190620003b5565b5090565b5b80821115620003b157600081600090555060010162000397565b5090565b5b80821115620003d95760008181620003cf9190620003dd565b50600101620003b6565b5090565b508054620003eb90620007bc565b6000825580601f10620003ff575062000420565b601f0160209004906000526020600020908101906200041f919062000396565b5b50565b60006200043a6200043484620006bb565b62000692565b905080828560208602820111156200045757620004566200088b565b5b60005b85811015620004ac57815167ffffffffffffffff81111562000481576200048062000886565b5b8086016200049089826200055f565b855260208501945060208401935050506001810190506200045a565b5050509392505050565b6000620004cd620004c784620006e4565b62000692565b905082815260208101848484011115620004ec57620004eb62000890565b5b620004f984828562000786565b509392505050565b6000815190506200051281620008b0565b92915050565b600082601f83011262000530576200052f62000886565b5b60036200053f84828562000423565b91505092915050565b6000815190506200055981620008ca565b92915050565b600082601f83011262000577576200057662000886565b5b815162000589848260208601620004b6565b91505092915050565b600081519050620005a381620008e4565b92915050565b600081519050620005ba81620008fe565b92915050565b600081519050620005d18162000918565b92915050565b60008060008060008060c08789031215620005f757620005f66200089a565b5b60006200060789828a0162000501565b96505060206200061a89828a01620005c0565b95505060406200062d89828a0162000548565b94505060606200064089828a01620005a9565b935050608087015167ffffffffffffffff81111562000664576200066362000895565b5b6200067289828a0162000518565b92505060a06200068589828a0162000592565b9150509295509295509295565b60006200069e620006b1565b9050620006ac8282620007f2565b919050565b6000604051905090565b600067ffffffffffffffff821115620006d957620006d862000857565b5b602082029050919050565b600067ffffffffffffffff82111562000702576200070162000857565b5b6200070d826200089f565b9050602081019050919050565b6000620007278262000738565b9050919050565b6000819050919050565b600073ffffffffffffffffffffffffffffffffffffffff82169050919050565b6000819050919050565b600063ffffffff82169050919050565b600067ffffffffffffffff82169050919050565b60005b83811015620007a657808201518184015260208101905062000789565b83811115620007b6576000848401525b50505050565b60006002820490506001821680620007d557607f821691505b60208210811415620007ec57620007eb62000828565b5b50919050565b620007fd826200089f565b810181811067ffffffffffffffff821117156200081f576200081e62000857565b5b80604052505050565b7f4e487b7100000000000000000000000000000000000000000000000000000000600052602260045260246000fd5b7f4e487b7100000000000000000000000000000000000000000000000000000000600052604160045260246000fd5b600080fd5b600080fd5b600080fd5b600080fd5b600080fd5b6000601f19601f8301169050919050565b620008bb816200071a565b8114620008c757600080fd5b50565b620008d5816200072e565b8114620008e157600080fd5b50565b620008ef8162000758565b8114620008fb57600080fd5b50565b620009098162000762565b81146200091557600080fd5b50565b620009238162000772565b81146200092f57600080fd5b50565b60805160601c60a05160601c60c05160c01c60e0516101005160e01c610120516139c36200099c60003960008181610dbc0152610ee901526000610fc301526000610f7f01526000610fa001526000610f4301526000818161096301526109b701526139c36000f3fe60806040526004361061019c5760003560e01c806370a08231116100ec578063aa1524911161008a578063c908cc4911610064578063c908cc49146105bb578063da1b9e29146105f8578063e985e9c514610623578063f2fde38b146106605761019c565b8063aa15249114610537578063b88d4fde14610555578063c87b56dd1461057e5761019c565b80638da5cb5b116100c65780638da5cb5b1461047b57806395d89b41146104a6578063a22cb465146104d1578063a36f573b146104fa5761019c565b806370a08231146103fc578063715018a6146104395780637a5caab3146104505761019c565b806323b872dd1161015957806342842e0e1161013357806342842e0e146103405780635dacf5f4146103695780636352211e146103945780636e02007d146103d15761019c565b806323b872dd146102c35780633af25975146102ec5780633ccfd60b146103295761019c565b806301ffc9a7146101a157806306fdde03146101de578063081812fc14610209578063095ea7b3146102465780630b21a83b1461026f5780631fe543e31461029a575b600080fd5b3480156101ad57600080fd5b506101c860048036038101906101c3919061284d565b610689565b6040516101d59190612de7565b60405180910390f35b3480156101ea57600080fd5b506101f361076b565b6040516102009190612e99565b60405180910390f35b34801561021557600080fd5b50610230600480360381019061022b91906128a7565b6107fd565b60405161023d9190612d3c565b60405180910390f35b34801561025257600080fd5b5061026d6004803603810190610268919061280d565b610843565b005b34801561027b57600080fd5b5061028461095b565b604051610291919061307b565b60405180910390f35b3480156102a657600080fd5b506102c160048036038101906102bc9190612901565b610961565b005b3480156102cf57600080fd5b506102ea60048036038101906102e591906126f7565b610a21565b005b3480156102f857600080fd5b50610313600480360381019061030e91906128a7565b610a81565b6040516103209190612e99565b60405180910390f35b34801561033557600080fd5b5061033e610b31565b005b34801561034c57600080fd5b50610367600480360381019061036291906126f7565b610be5565b005b34801561037557600080fd5b5061037e610c05565b60405161038b9190612dcc565b60405180910390f35b3480156103a057600080fd5b506103bb60048036038101906103b691906128a7565b610c30565b6040516103c89190612d3c565b60405180910390f35b3480156103dd57600080fd5b506103e6610ce2565b6040516103f3919061307b565b60405180910390f35b34801561040857600080fd5b50610423600480360381019061041e919061268a565b610cec565b604051610430919061307b565b60405180910390f35b34801561044557600080fd5b5061044e610da4565b005b34801561045c57600080fd5b50610465610db8565b604051610472919061307b565b60405180910390f35b34801561048757600080fd5b50610490610de0565b60405161049d9190612d3c565b60405180910390f35b3480156104b257600080fd5b506104bb610e0a565b6040516104c89190612e99565b60405180910390f35b3480156104dd57600080fd5b506104f860048036038101906104f391906127cd565b610e9c565b005b34801561050657600080fd5b50610521600480360381019061051c91906128a7565b610eb2565b60405161052e9190612d3c565b60405180910390f35b61053f610ee5565b60405161054c919061307b565b60405180910390f35b34801561056157600080fd5b5061057c6004803603810190610577919061274a565b6110e5565b005b34801561058a57600080fd5b506105a560048036038101906105a091906128a7565b611147565b6040516105b29190612e99565b60405180910390f35b3480156105c757600080fd5b506105e260048036038101906105dd91906128a7565b61125a565b6040516105ef9190612e55565b60405180910390f35b34801561060457600080fd5b5061060d611327565b60405161061a919061307b565b60405180910390f35b34801561062f57600080fd5b5061064a600480360381019061064591906126b7565b61132c565b6040516106579190612de7565b60405180910390f35b34801561066c57600080fd5b506106876004803603810190610682919061268a565b6113c0565b005b60007f80ac58cd000000000000000000000000000000000000000000000000000000007bffffffffffffffffffffffffffffffffffffffffffffffffffffffff1916827bffffffffffffffffffffffffffffffffffffffffffffffffffffffff1916148061075457507f5b5e139f000000000000000000000000000000000000000000000000000000007bffffffffffffffffffffffffffffffffffffffffffffffffffffffff1916827bffffffffffffffffffffffffffffffffffffffffffffffffffffffff1916145b80610764575061076382611444565b5b9050919050565b60606000805461077a90613365565b80601f01602080910402602001604051908101604052809291908181526020018280546107a690613365565b80156107f35780601f106107c8576101008083540402835291602001916107f3565b820191906000526020600020905b8154815290600101906020018083116107d657829003601f168201915b5050505050905090565b6000610808826114ae565b6004600083815260200190815260200160002060009054906101000a900473ffffffffffffffffffffffffffffffffffffffff169050919050565b600061084e82610c30565b90508073ffffffffffffffffffffffffffffffffffffffff168373ffffffffffffffffffffffffffffffffffffffff1614156108bf576040517f08c379a00000000000000000000000000000000000000000000000000000000081526004016108b69061303b565b60405180910390fd5b8073ffffffffffffffffffffffffffffffffffffffff166108de6114f9565b73ffffffffffffffffffffffffffffffffffffffff16148061090d575061090c816109076114f9565b61132c565b5b61094c576040517f08c379a000000000000000000000000000000000000000000000000000000000815260040161094390612fbb565b60405180910390fd5b6109568383611501565b505050565b60095481565b7f000000000000000000000000000000000000000000000000000000000000000073ffffffffffffffffffffffffffffffffffffffff163373ffffffffffffffffffffffffffffffffffffffff1614610a1357337f00000000000000000000000000000000000000000000000000000000000000006040517f1cf993f4000000000000000000000000000000000000000000000000000000008152600401610a0a929190612d57565b60405180910390fd5b610a1d82826115ba565b5050565b610a32610a2c6114f9565b82611759565b610a71576040517f08c379a0000000000000000000000000000000000000000000000000000000008152600401610a689061305b565b60405180910390fd5b610a7c8383836117ee565b505050565b6060600a8281548110610a9757610a966134fe565b5b906000526020600020018054610aac90613365565b80601f0160208091040260200160405190810160405280929190818152602001828054610ad890613365565b8015610b255780601f10610afa57610100808354040283529160200191610b25565b820191906000526020600020905b815481529060010190602001808311610b0857829003601f168201915b50505050509050919050565b610b39611a55565b600047905060003373ffffffffffffffffffffffffffffffffffffffff1682604051610b6490612d27565b60006040518083038185875af1925050503d8060008114610ba1576040519150601f19603f3d011682016040523d82523d6000602084013e610ba6565b606091505b5050905080610be1576040517fca7e25b700000000000000000000000000000000000000000000000000000000815260040160405180910390fd5b5050565b610c00838383604051806020016040528060008152506110e5565b505050565b610c0d612439565b6040518060600160405280600a8152602001601e81526020016064815250905090565b6000806002600084815260200190815260200160002060009054906101000a900473ffffffffffffffffffffffffffffffffffffffff169050600073ffffffffffffffffffffffffffffffffffffffff168173ffffffffffffffffffffffffffffffffffffffff161415610cd9576040517f08c379a0000000000000000000000000000000000000000000000000000000008152600401610cd09061301b565b60405180910390fd5b80915050919050565b6000600954905090565b60008073ffffffffffffffffffffffffffffffffffffffff168273ffffffffffffffffffffffffffffffffffffffff161415610d5d576040517f08c379a0000000000000000000000000000000000000000000000000000000008152600401610d5490612f7b565b60405180910390fd5b600360008373ffffffffffffffffffffffffffffffffffffffff1673ffffffffffffffffffffffffffffffffffffffff168152602001908152602001600020549050919050565b610dac611a55565b610db66000611ad3565b565b60007f0000000000000000000000000000000000000000000000000000000000000000905090565b6000600760009054906101000a900473ffffffffffffffffffffffffffffffffffffffff16905090565b606060018054610e1990613365565b80601f0160208091040260200160405190810160405280929190818152602001828054610e4590613365565b8015610e925780601f10610e6757610100808354040283529160200191610e92565b820191906000526020600020905b815481529060010190602001808311610e7557829003601f168201915b5050505050905090565b610eae610ea76114f9565b8383611b99565b5050565b60086020528060005260406000206000915054906101000a900473ffffffffffffffffffffffffffffffffffffffff1681565b60007f0000000000000000000000000000000000000000000000000000000000000000341015610f41576040517f34a1f5c800000000000000000000000000000000000000000000000000000000815260040160405180910390fd5b7f000000000000000000000000000000000000000000000000000000000000000073ffffffffffffffffffffffffffffffffffffffff16635d3b1d307f00000000000000000000000000000000000000000000000000000000000000007f000000000000000000000000000000000000000000000000000000000000000060037f000000000000000000000000000000000000000000000000000000000000000060016040518663ffffffff1660e01b8152600401611004959493929190612e02565b602060405180830381600087803b15801561101e57600080fd5b505af1158015611032573d6000803e3d6000fd5b505050506040513d601f19601f8201168201806040525081019061105691906128d4565b9050336008600083815260200190815260200160002060006101000a81548173ffffffffffffffffffffffffffffffffffffffff021916908373ffffffffffffffffffffffffffffffffffffffff160217905550807ff873236e6cc0ecc5be1a9a35c95ee5b8d1ac4cc7bfef0cc5060391d6cc98e26b336040516110da9190612d3c565b60405180910390a290565b6110f66110f06114f9565b83611759565b611135576040517f08c379a000000000000000000000000000000000000000000000000000000000815260040161112c9061305b565b60405180910390fd5b61114184848484611d06565b50505050565b6060611152826114ae565b600060066000848152602001908152602001600020805461117290613365565b80601f016020809104026020016040519081016040528092919081815260200182805461119e90613365565b80156111eb5780601f106111c0576101008083540402835291602001916111eb565b820191906000526020600020905b8154815290600101906020018083116111ce57829003601f168201915b5050505050905060006111fc611d62565b9050600081511415611212578192505050611255565b60008251111561124757808260405160200161122f929190612d03565b60405160208183030381529060405292505050611255565b61125084611d79565b925050505b919050565b60008060009050600061126b610c05565b905060005b60038110156112ef578285101580156112a05750818160038110611297576112966134fe565b5b60200201518511155b156112c2578060028111156112b8576112b76134a0565b5b9350505050611322565b8181600381106112d5576112d46134fe565b5b6020020151925080806112e7906133c8565b915050611270565b506040517f9f6cf4af00000000000000000000000000000000000000000000000000000000815260040160405180910390fd5b919050565b606481565b6000600560008473ffffffffffffffffffffffffffffffffffffffff1673ffffffffffffffffffffffffffffffffffffffff16815260200190815260200160002060008373ffffffffffffffffffffffffffffffffffffffff1673ffffffffffffffffffffffffffffffffffffffff16815260200190815260200160002060009054906101000a900460ff16905092915050565b6113c8611a55565b600073ffffffffffffffffffffffffffffffffffffffff168173ffffffffffffffffffffffffffffffffffffffff161415611438576040517f08c379a000000000000000000000000000000000000000000000000000000000815260040161142f90612edb565b60405180910390fd5b61144181611ad3565b50565b60007f01ffc9a7000000000000000000000000000000000000000000000000000000007bffffffffffffffffffffffffffffffffffffffffffffffffffffffff1916827bffffffffffffffffffffffffffffffffffffffffffffffffffffffff1916149050919050565b6114b781611de1565b6114f6576040517f08c379a00000000000000000000000000000000000000000000000000000000081526004016114ed9061301b565b60405180910390fd5b50565b600033905090565b816004600083815260200190815260200160002060006101000a81548173ffffffffffffffffffffffffffffffffffffffff021916908373ffffffffffffffffffffffffffffffffffffffff160217905550808273ffffffffffffffffffffffffffffffffffffffff1661157483610c30565b73ffffffffffffffffffffffffffffffffffffffff167f8c5be1e5ebec7d5bd14f71427d1e84f3dd0314c0f7b2291e5b200ac8c7c3b92560405160405180910390a45050565b60006008600084815260200190815260200160002060009054906101000a900473ffffffffffffffffffffffffffffffffffffffff1690506000600954905060016009600082825461160c9190613193565b92505081905550600060648460008151811061162b5761162a6134fe565b5b602002602001015161163d9190613411565b9050600061164a8261125a565b90506116568484611e4d565b61171883600a83600281111561166f5761166e6134a0565b5b815481106116805761167f6134fe565b5b90600052602060002001805461169590613365565b80601f01602080910402602001604051908101604052809291908181526020018280546116c190613365565b801561170e5780601f106116e35761010080835404028352916020019161170e565b820191906000526020600020905b8154815290600101906020018083116116f157829003601f168201915b5050505050611e6b565b7f8a269f26b688e110e9cbd887d163dab35cae678fa353a0292de532c0cac1ecdc8185604051611749929190612e70565b60405180910390a1505050505050565b60008061176583610c30565b90508073ffffffffffffffffffffffffffffffffffffffff168473ffffffffffffffffffffffffffffffffffffffff1614806117a757506117a6818561132c565b5b806117e557508373ffffffffffffffffffffffffffffffffffffffff166117cd846107fd565b73ffffffffffffffffffffffffffffffffffffffff16145b91505092915050565b8273ffffffffffffffffffffffffffffffffffffffff1661180e82610c30565b73ffffffffffffffffffffffffffffffffffffffff1614611864576040517f08c379a000000000000000000000000000000000000000000000000000000000815260040161185b90612efb565b60405180910390fd5b600073ffffffffffffffffffffffffffffffffffffffff168273ffffffffffffffffffffffffffffffffffffffff1614156118d4576040517f08c379a00000000000000000000000000000000000000000000000000000000081526004016118cb90612f3b565b60405180910390fd5b6118df838383611edf565b6118ea600082611501565b6001600360008573ffffffffffffffffffffffffffffffffffffffff1673ffffffffffffffffffffffffffffffffffffffff168152602001908152602001600020600082825461193a919061321a565b925050819055506001600360008473ffffffffffffffffffffffffffffffffffffffff1673ffffffffffffffffffffffffffffffffffffffff16815260200190815260200160002060008282546119919190613193565b92505081905550816002600083815260200190815260200160002060006101000a81548173ffffffffffffffffffffffffffffffffffffffff021916908373ffffffffffffffffffffffffffffffffffffffff160217905550808273ffffffffffffffffffffffffffffffffffffffff168473ffffffffffffffffffffffffffffffffffffffff167fddf252ad1be2c89b69c2b068fc378daa952ba7f163c4a11628f55a4df523b3ef60405160405180910390a4611a50838383611ee4565b505050565b611a5d6114f9565b73ffffffffffffffffffffffffffffffffffffffff16611a7b610de0565b73ffffffffffffffffffffffffffffffffffffffff1614611ad1576040517f08c379a0000000000000000000000000000000000000000000000000000000008152600401611ac890612ffb565b60405180910390fd5b565b6000600760009054906101000a900473ffffffffffffffffffffffffffffffffffffffff16905081600760006101000a81548173ffffffffffffffffffffffffffffffffffffffff021916908373ffffffffffffffffffffffffffffffffffffffff1602179055508173ffffffffffffffffffffffffffffffffffffffff168173ffffffffffffffffffffffffffffffffffffffff167f8be0079c531659141344cd1fd0a4f28419497f9722a3daafe3b4186f6b6457e060405160405180910390a35050565b8173ffffffffffffffffffffffffffffffffffffffff168373ffffffffffffffffffffffffffffffffffffffff161415611c08576040517f08c379a0000000000000000000000000000000000000000000000000000000008152600401611bff90612f5b565b60405180910390fd5b80600560008573ffffffffffffffffffffffffffffffffffffffff1673ffffffffffffffffffffffffffffffffffffffff16815260200190815260200160002060008473ffffffffffffffffffffffffffffffffffffffff1673ffffffffffffffffffffffffffffffffffffffff16815260200190815260200160002060006101000a81548160ff0219169083151502179055508173ffffffffffffffffffffffffffffffffffffffff168373ffffffffffffffffffffffffffffffffffffffff167f17307eab39ab6107e8899845ad3d59bd9653f200f220920489ca2b5937696c3183604051611cf99190612de7565b60405180910390a3505050565b611d118484846117ee565b611d1d84848484611ee9565b611d5c576040517f08c379a0000000000000000000000000000000000000000000000000000000008152600401611d5390612ebb565b60405180910390fd5b50505050565b606060405180602001604052806000815250905090565b6060611d84826114ae565b6000611d8e611d62565b90506000815111611dae5760405180602001604052806000815250611dd9565b80611db884612080565b604051602001611dc9929190612d03565b6040516020818303038152906040525b915050919050565b60008073ffffffffffffffffffffffffffffffffffffffff166002600084815260200190815260200160002060009054906101000a900473ffffffffffffffffffffffffffffffffffffffff1673ffffffffffffffffffffffffffffffffffffffff1614159050919050565b611e678282604051806020016040528060008152506121e1565b5050565b611e7482611de1565b611eb3576040517f08c379a0000000000000000000000000000000000000000000000000000000008152600401611eaa90612f9b565b60405180910390fd5b80600660008481526020019081526020016000209080519060200190611eda92919061245b565b505050565b505050565b505050565b6000611f0a8473ffffffffffffffffffffffffffffffffffffffff1661223c565b15612073578373ffffffffffffffffffffffffffffffffffffffff1663150b7a02611f336114f9565b8786866040518563ffffffff1660e01b8152600401611f559493929190612d80565b602060405180830381600087803b158015611f6f57600080fd5b505af1925050508015611fa057506040513d601f19601f82011682018060405250810190611f9d919061287a565b60015b612023573d8060008114611fd0576040519150601f19603f3d011682016040523d82523d6000602084013e611fd5565b606091505b5060008151141561201b576040517f08c379a000000000000000000000000000000000000000000000000000000000815260040161201290612ebb565b60405180910390fd5b805181602001fd5b63150b7a0260e01b7bffffffffffffffffffffffffffffffffffffffffffffffffffffffff1916817bffffffffffffffffffffffffffffffffffffffffffffffffffffffff191614915050612078565b600190505b949350505050565b606060008214156120c8576040518060400160405280600181526020017f300000000000000000000000000000000000000000000000000000000000000081525090506121dc565b600082905060005b600082146120fa5780806120e3906133c8565b915050600a826120f391906131e9565b91506120d0565b60008167ffffffffffffffff8111156121165761211561352d565b5b6040519080825280601f01601f1916602001820160405280156121485781602001600182028036833780820191505090505b5090505b600085146121d557600182612161919061321a565b9150600a856121709190613411565b603061217c9190613193565b60f81b818381518110612192576121916134fe565b5b60200101907effffffffffffffffffffffffffffffffffffffffffffffffffffffffffffff1916908160001a905350600a856121ce91906131e9565b945061214c565b8093505050505b919050565b6121eb838361225f565b6121f86000848484611ee9565b612237576040517f08c379a000000000000000000000000000000000000000000000000000000000815260040161222e90612ebb565b60405180910390fd5b505050565b6000808273ffffffffffffffffffffffffffffffffffffffff163b119050919050565b600073ffffffffffffffffffffffffffffffffffffffff168273ffffffffffffffffffffffffffffffffffffffff1614156122cf576040517f08c379a00000000000000000000000000000000000000000000000000000000081526004016122c690612fdb565b60405180910390fd5b6122d881611de1565b15612318576040517f08c379a000000000000000000000000000000000000000000000000000000000815260040161230f90612f1b565b60405180910390fd5b61232460008383611edf565b6001600360008473ffffffffffffffffffffffffffffffffffffffff1673ffffffffffffffffffffffffffffffffffffffff16815260200190815260200160002060008282546123749190613193565b92505081905550816002600083815260200190815260200160002060006101000a81548173ffffffffffffffffffffffffffffffffffffffff021916908373ffffffffffffffffffffffffffffffffffffffff160217905550808273ffffffffffffffffffffffffffffffffffffffff16600073ffffffffffffffffffffffffffffffffffffffff167fddf252ad1be2c89b69c2b068fc378daa952ba7f163c4a11628f55a4df523b3ef60405160405180910390a461243560008383611ee4565b5050565b6040518060600160405280600390602082028036833780820191505090505090565b82805461246790613365565b90600052602060002090601f01602090048101928261248957600085556124d0565b82601f106124a257805160ff19168380011785556124d0565b828001600101855582156124d0579182015b828111156124cf5782518255916020019190600101906124b4565b5b5090506124dd91906124e1565b5090565b5b808211156124fa5760008160009055506001016124e2565b5090565b600061251161250c846130bb565b613096565b9050808382526020820190508285602086028201111561253457612533613561565b5b60005b85811015612564578161254a8882612660565b845260208401935060208301925050600181019050612537565b5050509392505050565b600061258161257c846130e7565b613096565b90508281526020810184848401111561259d5761259c613566565b5b6125a8848285613323565b509392505050565b6000813590506125bf81613931565b92915050565b600082601f8301126125da576125d961355c565b5b81356125ea8482602086016124fe565b91505092915050565b60008135905061260281613948565b92915050565b6000813590506126178161395f565b92915050565b60008151905061262c8161395f565b92915050565b600082601f8301126126475761264661355c565b5b813561265784826020860161256e565b91505092915050565b60008135905061266f81613976565b92915050565b60008151905061268481613976565b92915050565b6000602082840312156126a05761269f613570565b5b60006126ae848285016125b0565b91505092915050565b600080604083850312156126ce576126cd613570565b5b60006126dc858286016125b0565b92505060206126ed858286016125b0565b9150509250929050565b6000806000606084860312156127105761270f613570565b5b600061271e868287016125b0565b935050602061272f868287016125b0565b925050604061274086828701612660565b9150509250925092565b6000806000806080858703121561276457612763613570565b5b6000612772878288016125b0565b9450506020612783878288016125b0565b935050604061279487828801612660565b925050606085013567ffffffffffffffff8111156127b5576127b461356b565b5b6127c187828801612632565b91505092959194509250565b600080604083850312156127e4576127e3613570565b5b60006127f2858286016125b0565b9250506020612803858286016125f3565b9150509250929050565b6000806040838503121561282457612823613570565b5b6000612832858286016125b0565b925050602061284385828601612660565b9150509250929050565b60006020828403121561286357612862613570565b5b600061287184828501612608565b91505092915050565b6000602082840312156128905761288f613570565b5b600061289e8482850161261d565b91505092915050565b6000602082840312156128bd576128bc613570565b5b60006128cb84828501612660565b91505092915050565b6000602082840312156128ea576128e9613570565b5b60006128f884828501612675565b91505092915050565b6000806040838503121561291857612917613570565b5b600061292685828601612660565b925050602083013567ffffffffffffffff8111156129475761294661356b565b5b612953858286016125c5565b9150509250929050565b60006129698383612cc7565b60208301905092915050565b61297e8161324e565b82525050565b61298d81613122565b6129978184613150565b92506129a282613118565b8060005b838110156129d35781516129ba878261295d565b96506129c583613143565b9250506001810190506129a6565b505050505050565b6129e481613260565b82525050565b6129f38161326c565b82525050565b6000612a048261312d565b612a0e818561315b565b9350612a1e818560208601613332565b612a2781613575565b840191505092915050565b612a3b81613311565b82525050565b6000612a4c82613138565b612a568185613177565b9350612a66818560208601613332565b612a6f81613575565b840191505092915050565b6000612a8582613138565b612a8f8185613188565b9350612a9f818560208601613332565b80840191505092915050565b6000612ab8603283613177565b9150612ac382613586565b604082019050919050565b6000612adb602683613177565b9150612ae6826135d5565b604082019050919050565b6000612afe602583613177565b9150612b0982613624565b604082019050919050565b6000612b21601c83613177565b9150612b2c82613673565b602082019050919050565b6000612b44602483613177565b9150612b4f8261369c565b604082019050919050565b6000612b67601983613177565b9150612b72826136eb565b602082019050919050565b6000612b8a602983613177565b9150612b9582613714565b604082019050919050565b6000612bad602e83613177565b9150612bb882613763565b604082019050919050565b6000612bd0603e83613177565b9150612bdb826137b2565b604082019050919050565b6000612bf3602083613177565b9150612bfe82613801565b602082019050919050565b6000612c16602083613177565b9150612c218261382a565b602082019050919050565b6000612c39601883613177565b9150612c4482613853565b602082019050919050565b6000612c5c602183613177565b9150612c678261387c565b604082019050919050565b6000612c7f60008361316c565b9150612c8a826138cb565b600082019050919050565b6000612ca2602e83613177565b9150612cad826138ce565b604082019050919050565b612cc1816132b5565b82525050565b612cd0816132e3565b82525050565b612cdf816132e3565b82525050565b612cee816132ed565b82525050565b612cfd816132fd565b82525050565b6000612d0f8285612a7a565b9150612d1b8284612a7a565b91508190509392505050565b6000612d3282612c72565b9150819050919050565b6000602082019050612d516000830184612975565b92915050565b6000604082019050612d6c6000830185612975565b612d796020830184612975565b9392505050565b6000608082019050612d956000830187612975565b612da26020830186612975565b612daf6040830185612cd6565b8181036060830152612dc181846129f9565b905095945050505050565b6000606082019050612de16000830184612984565b92915050565b6000602082019050612dfc60008301846129db565b92915050565b600060a082019050612e1760008301886129ea565b612e246020830187612cf4565b612e316040830186612cb8565b612e3e6060830185612ce5565b612e4b6080830184612ce5565b9695505050505050565b6000602082019050612e6a6000830184612a32565b92915050565b6000604082019050612e856000830185612a32565b612e926020830184612975565b9392505050565b60006020820190508181036000830152612eb38184612a41565b905092915050565b60006020820190508181036000830152612ed481612aab565b9050919050565b60006020820190508181036000830152612ef481612ace565b9050919050565b60006020820190508181036000830152612f1481612af1565b9050919050565b60006020820190508181036000830152612f3481612b14565b9050919050565b60006020820190508181036000830152612f5481612b37565b9050919050565b60006020820190508181036000830152612f7481612b5a565b9050919050565b60006020820190508181036000830152612f9481612b7d565b9050919050565b60006020820190508181036000830152612fb481612ba0565b9050919050565b60006020820190508181036000830152612fd481612bc3565b9050919050565b60006020820190508181036000830152612ff481612be6565b9050919050565b6000602082019050818103600083015261301481612c09565b9050919050565b6000602082019050818103600083015261303481612c2c565b9050919050565b6000602082019050818103600083015261305481612c4f565b9050919050565b6000602082019050818103600083015261307481612c95565b9050919050565b60006020820190506130906000830184612cd6565b92915050565b60006130a06130b1565b90506130ac8282613397565b919050565b6000604051905090565b600067ffffffffffffffff8211156130d6576130d561352d565b5b602082029050602081019050919050565b600067ffffffffffffffff8211156131025761310161352d565b5b61310b82613575565b9050602081019050919050565b6000819050919050565b600060039050919050565b600081519050919050565b600081519050919050565b6000602082019050919050565b600081905092915050565b600082825260208201905092915050565b600081905092915050565b600082825260208201905092915050565b600081905092915050565b600061319e826132e3565b91506131a9836132e3565b9250827fffffffffffffffffffffffffffffffffffffffffffffffffffffffffffffffff038211156131de576131dd613442565b5b828201905092915050565b60006131f4826132e3565b91506131ff836132e3565b92508261320f5761320e613471565b5b828204905092915050565b6000613225826132e3565b9150613230836132e3565b92508282101561324357613242613442565b5b828203905092915050565b6000613259826132c3565b9050919050565b60008115159050919050565b6000819050919050565b60007fffffffff0000000000000000000000000000000000000000000000000000000082169050919050565b60008190506132b08261391d565b919050565b600061ffff82169050919050565b600073ffffffffffffffffffffffffffffffffffffffff82169050919050565b6000819050919050565b600063ffffffff82169050919050565b600067ffffffffffffffff82169050919050565b600061331c826132a2565b9050919050565b82818337600083830152505050565b60005b83811015613350578082015181840152602081019050613335565b8381111561335f576000848401525b50505050565b6000600282049050600182168061337d57607f821691505b60208210811415613391576133906134cf565b5b50919050565b6133a082613575565b810181811067ffffffffffffffff821117156133bf576133be61352d565b5b80604052505050565b60006133d3826132e3565b91507fffffffffffffffffffffffffffffffffffffffffffffffffffffffffffffffff82141561340657613405613442565b5b600182019050919050565b600061341c826132e3565b9150613427836132e3565b92508261343757613436613471565b5b828206905092915050565b7f4e487b7100000000000000000000000000000000000000000000000000000000600052601160045260246000fd5b7f4e487b7100000000000000000000000000000000000000000000000000000000600052601260045260246000fd5b7f4e487b7100000000000000000000000000000000000000000000000000000000600052602160045260246000fd5b7f4e487b7100000000000000000000000000000000000000000000000000000000600052602260045260246000fd5b7f4e487b7100000000000000000000000000000000000000000000000000000000600052603260045260246000fd5b7f4e487b7100000000000000000000000000000000000000000000000000000000600052604160045260246000fd5b600080fd5b600080fd5b600080fd5b600080fd5b600080fd5b6000601f19601f8301169050919050565b7f4552433732313a207472616e7366657220746f206e6f6e20455243373231526560008201527f63656976657220696d706c656d656e7465720000000000000000000000000000602082015250565b7f4f776e61626c653a206e6577206f776e657220697320746865207a65726f206160008201527f6464726573730000000000000000000000000000000000000000000000000000602082015250565b7f4552433732313a207472616e736665722066726f6d20696e636f72726563742060008201527f6f776e6572000000000000000000000000000000000000000000000000000000602082015250565b7f4552433732313a20746f6b656e20616c7265616479206d696e74656400000000600082015250565b7f4552433732313a207472616e7366657220746f20746865207a65726f2061646460008201527f7265737300000000000000000000000000000000000000000000000000000000602082015250565b7f4552433732313a20617070726f766520746f2063616c6c657200000000000000600082015250565b7f4552433732313a2061646472657373207a65726f206973206e6f74206120766160008201527f6c6964206f776e65720000000000000000000000000000000000000000000000602082015250565b7f45524337323155524953746f726167653a2055524920736574206f66206e6f6e60008201527f6578697374656e7420746f6b656e000000000000000000000000000000000000602082015250565b7f4552433732313a20617070726f76652063616c6c6572206973206e6f7420746f60008201527f6b656e206f776e6572206e6f7220617070726f76656420666f7220616c6c0000602082015250565b7f4552433732313a206d696e7420746f20746865207a65726f2061646472657373600082015250565b7f4f776e61626c653a2063616c6c6572206973206e6f7420746865206f776e6572600082015250565b7f4552433732313a20696e76616c696420746f6b656e2049440000000000000000600082015250565b7f4552433732313a20617070726f76616c20746f2063757272656e74206f776e6560008201527f7200000000000000000000000000000000000000000000000000000000000000602082015250565b50565b7f4552433732313a2063616c6c6572206973206e6f7420746f6b656e206f776e6560008201527f72206e6f7220617070726f766564000000000000000000000000000000000000602082015250565b6003811061392e5761392d6134a0565b5b50565b61393a8161324e565b811461394557600080fd5b50565b61395181613260565b811461395c57600080fd5b50565b61396881613276565b811461397357600080fd5b50565b61397f816132e3565b811461398a57600080fd5b5056fea26469706673582212207952b4ba973ae30b43d99687f4526fd0786305dc09894696722f7b7870a4c34b64736f6c63430008070033",
  "devdoc": {
    "kind": "dev",
    "methods": {
      "approve(address,uint256)": {
        "details": "See {IERC721-approve}."
      },
      "balanceOf(address)": {
        "details": "See {IERC721-balanceOf}."
      },
      "getApproved(uint256)": {
        "details": "See {IERC721-getApproved}."
      },
      "isApprovedForAll(address,address)": {
        "details": "See {IERC721-isApprovedForAll}."
      },
      "name()": {
        "details": "See {IERC721Metadata-name}."
      },
      "owner()": {
        "details": "Returns the address of the current owner."
      },
      "ownerOf(uint256)": {
        "details": "See {IERC721-ownerOf}."
      },
      "renounceOwnership()": {
        "details": "Leaves the contract without owner. It will not be possible to call `onlyOwner` functions anymore. Can only be called by the current owner. NOTE: Renouncing ownership will leave the contract without an owner, thereby removing any functionality that is only available to the owner."
      },
      "safeTransferFrom(address,address,uint256)": {
        "details": "See {IERC721-safeTransferFrom}."
      },
      "safeTransferFrom(address,address,uint256,bytes)": {
        "details": "See {IERC721-safeTransferFrom}."
      },
      "setApprovalForAll(address,bool)": {
        "details": "See {IERC721-setApprovalForAll}."
      },
      "supportsInterface(bytes4)": {
        "details": "See {IERC165-supportsInterface}."
      },
      "symbol()": {
        "details": "See {IERC721Metadata-symbol}."
      },
      "tokenURI(uint256)": {
        "details": "See {IERC721Metadata-tokenURI}."
      },
      "transferFrom(address,address,uint256)": {
        "details": "See {IERC721-transferFrom}."
      },
      "transferOwnership(address)": {
        "details": "Transfers ownership of the contract to a new account (`newOwner`). Can only be called by the current owner."
      }
    },
    "version": 1
  },
  "userdoc": {
    "kind": "user",
    "methods": {},
    "version": 1
  },
  "storageLayout": {
    "storage": [
      {
        "astId": 1028,
        "contract": "contracts/RandomIpfsNft.sol:RandomIpfsNft",
        "label": "_name",
        "offset": 0,
        "slot": "0",
        "type": "t_string_storage"
      },
      {
        "astId": 1030,
        "contract": "contracts/RandomIpfsNft.sol:RandomIpfsNft",
        "label": "_symbol",
        "offset": 0,
        "slot": "1",
        "type": "t_string_storage"
      },
      {
        "astId": 1034,
        "contract": "contracts/RandomIpfsNft.sol:RandomIpfsNft",
        "label": "_owners",
        "offset": 0,
        "slot": "2",
        "type": "t_mapping(t_uint256,t_address)"
      },
      {
        "astId": 1038,
        "contract": "contracts/RandomIpfsNft.sol:RandomIpfsNft",
        "label": "_balances",
        "offset": 0,
        "slot": "3",
        "type": "t_mapping(t_address,t_uint256)"
      },
      {
        "astId": 1042,
        "contract": "contracts/RandomIpfsNft.sol:RandomIpfsNft",
        "label": "_tokenApprovals",
        "offset": 0,
        "slot": "4",
        "type": "t_mapping(t_uint256,t_address)"
      },
      {
        "astId": 1048,
        "contract": "contracts/RandomIpfsNft.sol:RandomIpfsNft",
        "label": "_operatorApprovals",
        "offset": 0,
        "slot": "5",
        "type": "t_mapping(t_address,t_mapping(t_address,t_bool))"
      },
      {
        "astId": 2016,
        "contract": "contracts/RandomIpfsNft.sol:RandomIpfsNft",
        "label": "_tokenURIs",
        "offset": 0,
        "slot": "6",
        "type": "t_mapping(t_uint256,t_string_storage)"
      },
      {
        "astId": 897,
        "contract": "contracts/RandomIpfsNft.sol:RandomIpfsNft",
        "label": "_owner",
        "offset": 0,
        "slot": "7",
        "type": "t_address"
      },
      {
        "astId": 3183,
        "contract": "contracts/RandomIpfsNft.sol:RandomIpfsNft",
        "label": "s_requestIdToSender",
        "offset": 0,
        "slot": "8",
        "type": "t_mapping(t_uint256,t_address)"
      },
      {
        "astId": 3185,
        "contract": "contracts/RandomIpfsNft.sol:RandomIpfsNft",
        "label": "s_tokenCounter",
        "offset": 0,
        "slot": "9",
        "type": "t_uint256"
      },
      {
        "astId": 3195,
        "contract": "contracts/RandomIpfsNft.sol:RandomIpfsNft",
        "label": "s_dogTokenUris",
        "offset": 0,
        "slot": "10",
        "type": "t_array(t_string_storage)dyn_storage"
      }
    ],
    "types": {
      "t_address": {
        "encoding": "inplace",
        "label": "address",
        "numberOfBytes": "20"
      },
      "t_array(t_string_storage)dyn_storage": {
        "base": "t_string_storage",
        "encoding": "dynamic_array",
        "label": "string[]",
        "numberOfBytes": "32"
      },
      "t_bool": {
        "encoding": "inplace",
        "label": "bool",
        "numberOfBytes": "1"
      },
      "t_mapping(t_address,t_bool)": {
        "encoding": "mapping",
        "key": "t_address",
        "label": "mapping(address => bool)",
        "numberOfBytes": "32",
        "value": "t_bool"
      },
      "t_mapping(t_address,t_mapping(t_address,t_bool))": {
        "encoding": "mapping",
        "key": "t_address",
        "label": "mapping(address => mapping(address => bool))",
        "numberOfBytes": "32",
        "value": "t_mapping(t_address,t_bool)"
      },
      "t_mapping(t_address,t_uint256)": {
        "encoding": "mapping",
        "key": "t_address",
        "label": "mapping(address => uint256)",
        "numberOfBytes": "32",
        "value": "t_uint256"
      },
      "t_mapping(t_uint256,t_address)": {
        "encoding": "mapping",
        "key": "t_uint256",
        "label": "mapping(uint256 => address)",
        "numberOfBytes": "32",
        "value": "t_address"
      },
      "t_mapping(t_uint256,t_string_storage)": {
        "encoding": "mapping",
        "key": "t_uint256",
        "label": "mapping(uint256 => string)",
        "numberOfBytes": "32",
        "value": "t_string_storage"
      },
      "t_string_storage": {
        "encoding": "bytes",
        "label": "string",
        "numberOfBytes": "32"
      },
      "t_uint256": {
        "encoding": "inplace",
        "label": "uint256",
        "numberOfBytes": "32"
      }
    }
  }
}